{
  "_format": "hh3-artifact-1",
  "contractName": "CertificateRegistry",
  "sourceName": "contracts/CertificateRegistry.sol",
  "abi": [
    {
      "inputs": [],
      "stateMutability": "nonpayable",
      "type": "constructor"
    },
    {
      "inputs": [
        {
          "internalType": "bytes32",
          "name": "hash",
          "type": "bytes32"
        }
      ],
      "name": "CertificateAlreadyExists",
      "type": "error"
    },
    {
      "inputs": [
        {
          "internalType": "bytes32",
          "name": "hash",
          "type": "bytes32"
        }
      ],
      "name": "CertificateNotFound",
      "type": "error"
    },
    {
      "inputs": [],
      "name": "InvalidHash",
      "type": "error"
    },
    {
      "inputs": [],
      "name": "LabelCannotBeEmpty",
      "type": "error"
    },
    {
      "inputs": [
        {
          "internalType": "address",
          "name": "owner",
          "type": "address"
        }
      ],
      "name": "OwnableInvalidOwner",
      "type": "error"
    },
    {
      "inputs": [
        {
          "internalType": "address",
          "name": "account",
          "type": "address"
        }
      ],
      "name": "OwnableUnauthorizedAccount",
      "type": "error"
    },
    {
      "inputs": [
        {
          "internalType": "bytes32",
          "name": "hash",
          "type": "bytes32"
        },
        {
          "internalType": "enum CertificateRegistry.Status",
          "name": "currentStatus",
          "type": "uint8"
        }
      ],
      "name": "StatusUnchanged",
      "type": "error"
    },
    {
      "anonymous": false,
      "inputs": [
        {
          "indexed": true,
          "internalType": "bytes32",
          "name": "hash",
          "type": "bytes32"
        },
        {
          "indexed": false,
          "internalType": "string",
          "name": "label",
          "type": "string"
        },
        {
          "indexed": true,
          "internalType": "address",
          "name": "issuer",
          "type": "address"
        },
        {
          "indexed": false,
          "internalType": "uint256",
          "name": "issuedAt",
          "type": "uint256"
        }
      ],
      "name": "CertificateIssued",
      "type": "event"
    },
    {
      "anonymous": false,
      "inputs": [
        {
          "indexed": true,
          "internalType": "address",
          "name": "previousOwner",
          "type": "address"
        },
        {
          "indexed": true,
          "internalType": "address",
          "name": "newOwner",
          "type": "address"
        }
      ],
      "name": "OwnershipTransferred",
      "type": "event"
    },
    {
      "anonymous": false,
      "inputs": [
        {
          "indexed": true,
          "internalType": "bytes32",
          "name": "hash",
          "type": "bytes32"
        },
        {
          "indexed": false,
          "internalType": "enum CertificateRegistry.Status",
          "name": "newStatus",
          "type": "uint8"
        },
        {
          "indexed": true,
          "internalType": "address",
          "name": "updatedBy",
          "type": "address"
        },
        {
          "indexed": false,
          "internalType": "string",
          "name": "reason",
          "type": "string"
        }
      ],
      "name": "StatusUpdated",
      "type": "event"
    },
    {
      "inputs": [
        {
          "internalType": "bytes32",
          "name": "hash",
          "type": "bytes32"
        }
      ],
      "name": "getCertificate",
      "outputs": [
        {
          "internalType": "bool",
          "name": "exists",
          "type": "bool"
        },
        {
          "internalType": "string",
          "name": "label",
          "type": "string"
        },
        {
          "internalType": "uint256",
          "name": "issuedAt",
          "type": "uint256"
        },
        {
          "internalType": "address",
          "name": "issuer",
          "type": "address"
        },
        {
          "internalType": "enum CertificateRegistry.Status",
          "name": "status",
          "type": "uint8"
        }
      ],
      "stateMutability": "view",
      "type": "function"
    },
    {
      "inputs": [
        {
          "internalType": "bytes32",
          "name": "hash",
          "type": "bytes32"
        }
      ],
      "name": "getHistory",
      "outputs": [
        {
          "components": [
            {
              "internalType": "enum CertificateRegistry.Status",
              "name": "status",
              "type": "uint8"
            },
            {
              "internalType": "uint256",
              "name": "changedAt",
              "type": "uint256"
            },
            {
              "internalType": "address",
              "name": "changedBy",
              "type": "address"
            },
            {
              "internalType": "string",
              "name": "reason",
              "type": "string"
            }
          ],
          "internalType": "struct CertificateRegistry.StatusHistory[]",
          "name": "",
          "type": "tuple[]"
        }
      ],
      "stateMutability": "view",
      "type": "function"
    },
    {
      "inputs": [
        {
          "internalType": "bytes32",
          "name": "hash",
          "type": "bytes32"
        }
      ],
      "name": "getHistoryCount",
      "outputs": [
        {
          "internalType": "uint256",
          "name": "",
          "type": "uint256"
        }
      ],
      "stateMutability": "view",
      "type": "function"
    },
    {
      "inputs": [
        {
          "internalType": "bytes32",
          "name": "hash",
          "type": "bytes32"
        }
      ],
      "name": "isValid",
      "outputs": [
        {
          "internalType": "bool",
          "name": "",
          "type": "bool"
        }
      ],
      "stateMutability": "view",
      "type": "function"
    },
    {
      "inputs": [
        {
          "internalType": "bytes32",
          "name": "hash",
          "type": "bytes32"
        },
        {
          "internalType": "string",
          "name": "label",
          "type": "string"
        }
      ],
      "name": "issueCertificate",
      "outputs": [],
      "stateMutability": "nonpayable",
      "type": "function"
    },
    {
      "inputs": [],
      "name": "owner",
      "outputs": [
        {
          "internalType": "address",
          "name": "",
          "type": "address"
        }
      ],
      "stateMutability": "view",
      "type": "function"
    },
    {
      "inputs": [],
      "name": "renounceOwnership",
      "outputs": [],
      "stateMutability": "nonpayable",
      "type": "function"
    },
    {
      "inputs": [
        {
          "internalType": "address",
          "name": "newOwner",
          "type": "address"
        }
      ],
      "name": "transferOwnership",
      "outputs": [],
      "stateMutability": "nonpayable",
      "type": "function"
    },
    {
      "inputs": [
        {
          "internalType": "bytes32",
          "name": "hash",
          "type": "bytes32"
        },
        {
          "internalType": "enum CertificateRegistry.Status",
          "name": "newStatus",
          "type": "uint8"
        },
        {
          "internalType": "string",
          "name": "reason",
          "type": "string"
        }
      ],
      "name": "updateStatus",
      "outputs": [],
      "stateMutability": "nonpayable",
      "type": "function"
    }
  ],
  "bytecode": "0x608060405234801561000f575f5ffd5b50335f73ffffffffffffffffffffffffffffffffffffffff168173ffffffffffffffffffffffffffffffffffffffff1603610081575f6040517f1e4fbdf70000000000000000000000000000000000000000000000000000000081526004016100789190610196565b60405180910390fd5b6100908161009660201b60201c565b506101af565b5f5f5f9054906101000a900473ffffffffffffffffffffffffffffffffffffffff169050815f5f6101000a81548173ffffffffffffffffffffffffffffffffffffffff021916908373ffffffffffffffffffffffffffffffffffffffff1602179055508173ffffffffffffffffffffffffffffffffffffffff168173ffffffffffffffffffffffffffffffffffffffff167f8be0079c531659141344cd1fd0a4f28419497f9722a3daafe3b4186f6b6457e060405160405180910390a35050565b5f73ffffffffffffffffffffffffffffffffffffffff82169050919050565b5f61018082610157565b9050919050565b61019081610176565b82525050565b5f6020820190506101a95f830184610187565b92915050565b61164a806101bc5f395ff3fe608060405234801561000f575f5ffd5b5060043610610091575f3560e01c80638da5cb5b116100645780638da5cb5b1461012f578063baf75ec71461014d578063bb813b0014610169578063f2fde38b14610185578063f333fe08146101a157610091565b8063115d620d1461009557806349ccb3ab146100c55780636a938567146100f5578063715018a614610125575b5f5ffd5b6100af60048036038101906100aa9190610cb9565b6101d5565b6040516100bc9190610f39565b60405180910390f35b6100df60048036038101906100da9190610cb9565b61036a565b6040516100ec9190610f68565b60405180910390f35b61010f600480360381019061010a9190610cb9565b610387565b60405161011c9190610f9b565b60405180910390f35b61012d6103f4565b005b610137610407565b6040516101449190610fc3565b60405180910390f35b6101676004803603810190610162919061103d565b61042e565b005b610183600480360381019061017e91906110bd565b6106c3565b005b61019f600480360381019061019a9190611158565b6109a4565b005b6101bb60048036038101906101b69190610cb9565b610a28565b6040516101cc9594939291906111da565b60405180910390f35b606060025f8381526020019081526020015f20805480602002602001604051908101604052809291908181526020015f905b8282101561035f578382905f5260205f2090600402016040518060800160405290815f82015f9054906101000a900460ff16600281111561024b5761024a610d0d565b5b600281111561025d5761025c610d0d565b5b815260200160018201548152602001600282015f9054906101000a900473ffffffffffffffffffffffffffffffffffffffff1673ffffffffffffffffffffffffffffffffffffffff1673ffffffffffffffffffffffffffffffffffffffff1681526020016003820180546102d09061125f565b80601f01602080910402602001604051908101604052809291908181526020018280546102fc9061125f565b80156103475780601f1061031e57610100808354040283529160200191610347565b820191905f5260205f20905b81548152906001019060200180831161032a57829003601f168201915b50505050508152505081526020019060010190610207565b505050509050919050565b5f60025f8381526020019081526020015f20805490509050919050565b5f5f60015f8481526020019081526020015f209050805f015f9054906101000a900460ff1680156103ec57505f60028111156103c6576103c5610d0d565b5b8160030160149054906101000a900460ff1660028111156103ea576103e9610d0d565b5b145b915050919050565b6103fc610b2f565b6104055f610bb6565b565b5f5f5f9054906101000a900473ffffffffffffffffffffffffffffffffffffffff16905090565b610436610b2f565b5f5f1b8303610471576040517f0af806e000000000000000000000000000000000000000000000000000000000815260040160405180910390fd5b5f82829050036104ad576040517f28e5c95c00000000000000000000000000000000000000000000000000000000815260040160405180910390fd5b60015f8481526020019081526020015f205f015f9054906101000a900460ff161561050f57826040517f16b35fe3000000000000000000000000000000000000000000000000000000008152600401610506919061129e565b60405180910390fd5b6040518060a0016040528060011515815260200183838080601f0160208091040260200160405190810160405280939291908181526020018383808284375f81840152601f19601f8201169050808301925050505050505081526020014281526020013373ffffffffffffffffffffffffffffffffffffffff1681526020015f60028111156105a1576105a0610d0d565b5b81525060015f8581526020019081526020015f205f820151815f015f6101000a81548160ff02191690831515021790555060208201518160010190816105e79190611484565b50604082015181600201556060820151816003015f6101000a81548173ffffffffffffffffffffffffffffffffffffffff021916908373ffffffffffffffffffffffffffffffffffffffff16021790555060808201518160030160146101000a81548160ff0219169083600281111561066357610662610d0d565b5b02179055509050503373ffffffffffffffffffffffffffffffffffffffff16837f8f0f4c775104c2660782db3439fe57afdc4bc0bfaef04dfd574dbdba04990f5c8484426040516106b69392919061158d565b60405180910390a3505050565b6106cb610b2f565b60015f8581526020019081526020015f205f015f9054906101000a900460ff1661072c57836040517f7585e638000000000000000000000000000000000000000000000000000000008152600401610723919061129e565b60405180910390fd5b82600281111561073f5761073e610d0d565b5b60015f8681526020019081526020015f2060030160149054906101000a900460ff16600281111561077357610772610d0d565b5b036107b75783836040517f4a3e2b1e0000000000000000000000000000000000000000000000000000000081526004016107ae9291906115bd565b60405180910390fd5b8260015f8681526020019081526020015f2060030160146101000a81548160ff021916908360028111156107ee576107ed610d0d565b5b021790555060025f8581526020019081526020015f20604051806080016040528085600281111561082257610821610d0d565b5b81526020014281526020013373ffffffffffffffffffffffffffffffffffffffff16815260200184848080601f0160208091040260200160405190810160405280939291908181526020018383808284375f81840152601f19601f82011690508083019250505050505050815250908060018154018082558091505060019003905f5260205f2090600402015f909190919091505f820151815f015f6101000a81548160ff021916908360028111156108de576108dd610d0d565b5b0217905550602082015181600101556040820151816002015f6101000a81548173ffffffffffffffffffffffffffffffffffffffff021916908373ffffffffffffffffffffffffffffffffffffffff16021790555060608201518160030190816109489190611484565b5050503373ffffffffffffffffffffffffffffffffffffffff16847fc51ff7dd7b9e9bee4683554200a5477ccc4fa8873dba45ffb1e6e8620c3d1b92858585604051610996939291906115e4565b60405180910390a350505050565b6109ac610b2f565b5f73ffffffffffffffffffffffffffffffffffffffff168173ffffffffffffffffffffffffffffffffffffffff1603610a1c575f6040517f1e4fbdf7000000000000000000000000000000000000000000000000000000008152600401610a139190610fc3565b60405180910390fd5b610a2581610bb6565b50565b5f60605f5f5f5f60015f8881526020019081526020015f209050805f015f9054906101000a900460ff16816001018260020154836003015f9054906101000a900473ffffffffffffffffffffffffffffffffffffffff168460030160149054906101000a900460ff16838054610a9d9061125f565b80601f0160208091040260200160405190810160405280929190818152602001828054610ac99061125f565b8015610b145780601f10610aeb57610100808354040283529160200191610b14565b820191905f5260205f20905b815481529060010190602001808311610af757829003601f168201915b50505050509350955095509550955095505091939590929450565b610b37610c77565b73ffffffffffffffffffffffffffffffffffffffff16610b55610407565b73ffffffffffffffffffffffffffffffffffffffff1614610bb457610b78610c77565b6040517f118cdaa7000000000000000000000000000000000000000000000000000000008152600401610bab9190610fc3565b60405180910390fd5b565b5f5f5f9054906101000a900473ffffffffffffffffffffffffffffffffffffffff169050815f5f6101000a81548173ffffffffffffffffffffffffffffffffffffffff021916908373ffffffffffffffffffffffffffffffffffffffff1602179055508173ffffffffffffffffffffffffffffffffffffffff168173ffffffffffffffffffffffffffffffffffffffff167f8be0079c531659141344cd1fd0a4f28419497f9722a3daafe3b4186f6b6457e060405160405180910390a35050565b5f33905090565b5f5ffd5b5f5ffd5b5f819050919050565b610c9881610c86565b8114610ca2575f5ffd5b50565b5f81359050610cb381610c8f565b92915050565b5f60208284031215610cce57610ccd610c7e565b5b5f610cdb84828501610ca5565b91505092915050565b5f81519050919050565b5f82825260208201905092915050565b5f819050602082019050919050565b7f4e487b71000000000000000000000000000000000000000000000000000000005f52602160045260245ffd5b60038110610d4b57610d4a610d0d565b5b50565b5f819050610d5b82610d3a565b919050565b5f610d6a82610d4e565b9050919050565b610d7a81610d60565b82525050565b5f819050919050565b610d9281610d80565b82525050565b5f73ffffffffffffffffffffffffffffffffffffffff82169050919050565b5f610dc182610d98565b9050919050565b610dd181610db7565b82525050565b5f81519050919050565b5f82825260208201905092915050565b8281835e5f83830152505050565b5f601f19601f8301169050919050565b5f610e1982610dd7565b610e238185610de1565b9350610e33818560208601610df1565b610e3c81610dff565b840191505092915050565b5f608083015f830151610e5c5f860182610d71565b506020830151610e6f6020860182610d89565b506040830151610e826040860182610dc8565b5060608301518482036060860152610e9a8282610e0f565b9150508091505092915050565b5f610eb28383610e47565b905092915050565b5f602082019050919050565b5f610ed082610ce4565b610eda8185610cee565b935083602082028501610eec85610cfe565b805f5b85811015610f275784840389528151610f088582610ea7565b9450610f1383610eba565b925060208a01995050600181019050610eef565b50829750879550505050505092915050565b5f6020820190508181035f830152610f518184610ec6565b905092915050565b610f6281610d80565b82525050565b5f602082019050610f7b5f830184610f59565b92915050565b5f8115159050919050565b610f9581610f81565b82525050565b5f602082019050610fae5f830184610f8c565b92915050565b610fbd81610db7565b82525050565b5f602082019050610fd65f830184610fb4565b92915050565b5f5ffd5b5f5ffd5b5f5ffd5b5f5f83601f840112610ffd57610ffc610fdc565b5b8235905067ffffffffffffffff81111561101a57611019610fe0565b5b60208301915083600182028301111561103657611035610fe4565b5b9250929050565b5f5f5f6040848603121561105457611053610c7e565b5b5f61106186828701610ca5565b935050602084013567ffffffffffffffff81111561108257611081610c82565b5b61108e86828701610fe8565b92509250509250925092565b600381106110a6575f5ffd5b50565b5f813590506110b78161109a565b92915050565b5f5f5f5f606085870312156110d5576110d4610c7e565b5b5f6110e287828801610ca5565b94505060206110f3878288016110a9565b935050604085013567ffffffffffffffff81111561111457611113610c82565b5b61112087828801610fe8565b925092505092959194509250565b61113781610db7565b8114611141575f5ffd5b50565b5f813590506111528161112e565b92915050565b5f6020828403121561116d5761116c610c7e565b5b5f61117a84828501611144565b91505092915050565b5f82825260208201905092915050565b5f61119d82610dd7565b6111a78185611183565b93506111b7818560208601610df1565b6111c081610dff565b840191505092915050565b6111d481610d60565b82525050565b5f60a0820190506111ed5f830188610f8c565b81810360208301526111ff8187611193565b905061120e6040830186610f59565b61121b6060830185610fb4565b61122860808301846111cb565b9695505050505050565b7f4e487b71000000000000000000000000000000000000000000000000000000005f52602260045260245ffd5b5f600282049050600182168061127657607f821691505b60208210810361128957611288611232565b5b50919050565b61129881610c86565b82525050565b5f6020820190506112b15f83018461128f565b92915050565b7f4e487b71000000000000000000000000000000000000000000000000000000005f52604160045260245ffd5b5f819050815f5260205f209050919050565b5f6020601f8301049050919050565b5f82821b905092915050565b5f600883026113407fffffffffffffffffffffffffffffffffffffffffffffffffffffffffffffffff82611305565b61134a8683611305565b95508019841693508086168417925050509392505050565b5f819050919050565b5f61138561138061137b84610d80565b611362565b610d80565b9050919050565b5f819050919050565b61139e8361136b565b6113b26113aa8261138c565b848454611311565b825550505050565b5f5f905090565b6113c96113ba565b6113d4818484611395565b505050565b5b818110156113f7576113ec5f826113c1565b6001810190506113da565b5050565b601f82111561143c5761140d816112e4565b611416846112f6565b81016020851015611425578190505b611439611431856112f6565b8301826113d9565b50505b505050565b5f82821c905092915050565b5f61145c5f1984600802611441565b1980831691505092915050565b5f611474838361144d565b9150826002028217905092915050565b61148d82610dd7565b67ffffffffffffffff8111156114a6576114a56112b7565b5b6114b0825461125f565b6114bb8282856113fb565b5f60209050601f8311600181146114ec575f84156114da578287015190505b6114e48582611469565b86555061154b565b601f1984166114fa866112e4565b5f5b82811015611521578489015182556001820191506020850194506020810190506114fc565b8683101561153e578489015161153a601f89168261144d565b8355505b6001600288020188555050505b505050505050565b828183375f83830152505050565b5f61156c8385611183565b9350611579838584611553565b61158283610dff565b840190509392505050565b5f6040820190508181035f8301526115a6818587611561565b90506115b56020830184610f59565b949350505050565b5f6040820190506115d05f83018561128f565b6115dd60208301846111cb565b9392505050565b5f6040820190506115f75f8301866111cb565b818103602083015261160a818486611561565b905094935050505056fea26469706673582212200c67b9febc16056508d727f91c230564a74fba101409ab299ce38a31bace749764736f6c634300081c0033",
  "linkReferences": {},
  "deployedLinkReferences": {},
  "immutableReferences": {},
  "inputSourceName": "project/contracts/CertificateRegistry.sol",
  "buildInfoId": "solc-0_8_28-a3582a97ac20782ee90b5b76dec2697967f1862b"
}